:03000000020A04ED
:0C0A0400787FE4F6D8FD75812B0208F61F
:10099D0000FE00FD00FB00F700F0003F0006005BCD
:1009AD0000CF0066006D007D0007007F006F000125
:0609BD0000000002000032
:1009E700E4FFFEE4FDFC0DBD00010CED64FA4C7064
:0C09F700F50FBF00010EBE01EABF7CE757
:010A030022D0
:0409C3008E168F17E6
:1009C70078187C007D007BFF7A09799D7E007F0A7D
:0F09D7001208D0E51725E02418F8E6FE08E6FF21
:0109E60022EE
:0A096F0025E02408F8E6FE08E6FF84
:040979008E168F1730
:10097D0078187C007D007BFF7A0979A77E007F14B3
:0F098D001208D0E51725E02418F8E6FE08E6FF6B
:01099C002238
:1008F60078087C007D007BFF7A0979BB7E007F0843
:100906001208D0E4F510F511E4F514F515AF15AE9F
:10091600141209C38FA0E51512096F8F901209E70B
:100926000515E51570020514C39404E51464809456
:100936008040DA0511E51170020510C39403E51035
:100946006480948040C2E4F512F51375A0F0E513B7
:1009560012096F8F900513E51370020512C39404F4
:08096600E5126480948040E377
:01096E002266
:10080000E709F608DFFA8046E709F208DFFA803EDA
:1008100088828C83E709F0A3DFFA8032E309F608C7
:10082000DFFA8078E309F208DFFA807088828C832F
:10083000E309F0A3DFFA806489828A83E0A3F608E3
:10084000DFFA805889828A83E0A3F208DFFA804CBD
:1008500080D280FA80C680D4806980F28033801094
:1008600080A680EA809A80A880DA80E280CA8033FD
:1008700089828A83ECFAE493A3C8C582C8CCC58375
:10088000CCF0A3C8C582C8CCC583CCDFE9DEE78045
:100890000D89828A83E493A3F608DFF9ECFAA9F0C4
:1008A000EDFB2289828A83ECFAE0A3C8C582C8CC1A
:1008B000C583CCF0A3C8C582C8CCC583CCDFEADE33
:1008C000E880DB89828A83E493A3F208DFF980CC95
:1008D00088F0EF60010E4E60C388F0ED2402B4048E
:1008E0000050B9F582EB2402B4040050AF23234535
:0608F00082239008507302
:00000001FF
